:020000040800F2
:1000000000400220E13C0008C5090008C7090008BB
:1000100000000000000000000000000000000000E0
:10002000000000000000000000000000C9090008F6
:100030000000000000000000CB090008CD09000806
:10004000313D0008313D0008313D0008313D0008D8
:10005000313D0008313D0008313D0008313D0008C8
:10006000D5090008313D0008313D0008313D000848
:10007000313D0008313D0008313D0008313D0008A8
:10008000313D0008313D0008313D0008313D000898
:10009000313D0008313D0008313D0008313D000888
:1000A000313D0008313D0008313D0008313D000878
:0C00B000313D0008313D0008313D0008E2
:1000BC000023C25C0133002AFBD1581E704700009C
:1000CC0002B4714649084900095649008E4402BCE5
:1000DC007047C04602B4714649084900095C4900A2
:1000EC008E4402BC7047C04603B4714649084000B8
:1000FC004900095E49008E4403BC704703B4714645
:10010C00490840004900095A49008E4403BC704715
:10011C00002243088B4274D303098B425FD3030A3A
:10012C008B4244D3030B8B4228D3030C8B420DD34D
:10013C00FF22090212BA030C8B4202D312120902DB
:10014C0065D0030B8B4219D300E0090AC30B8B4219
:10015C0001D3CB03C01A5241830B8B4201D38B03C7
:10016C00C01A5241430B8B4201D34B03C01A52416C
:10017C00030B8B4201D30B03C01A5241C30A8B42AF
:10018C0001D3CB02C01A5241830A8B4201D38B029A
:10019C00C01A5241430A8B4201D34B02C01A52413E
:1001AC00030A8B4201D30B02C01A5241CDD2C309B0
:1001BC008B4201D3CB01C01A524183098B4201D32C
:1001CC008B01C01A524143098B4201D34B01C01A17
:1001DC00524103098B4201D30B01C01A5241C3088F
:1001EC008B4201D3CB00C01A524183088B4201D3FE
:1001FC008B00C01A524143088B4201D34B00C01AEA
:10020C005241411A00D20146524110467047FFE755
:10021C0001B5002000F006F802BDC0460029F7D059
:10022C0076E770477047C0460448054B10B58342CB
:10023C0003D0044B002B00D0984710BD680200205F
:10024C00680200200000000006480749091A8B10BC
:10025C00C90FC91810B5491003D0044B002B00D09E
:10026C00984710BD680200206802002000000000C2
:10027C0010B5074C2378002B09D1FFF7D5FF054BA0
:10028C00002B02D0044800E000BF0123237010BDF6
:10029C0068020020000000008C3D0008054B10B5E2
:1002AC00002B03D00449054800E000BFFFF7CCFF4A
:1002BC0010BDC046000000006C0200208C3D000800
:1002CC00084B10B51C6801F007FE02F02DFD064B23
:1002DC001B6883F308880022044B1A605A609A60EA
:1002EC00A04710BD044800080048000810E000E0DA
:1002FC0030B51025A7B03C22002104A803F013FD53
:10030C002A000021684603F00EFD4C22002113A8A0
:10031C0003F009FD8020800002F088FC2123049367
:10032C0080235B0205938023DB030B9303230D9344
:10033C0000230E9380239B02109380239B04119324
:10034C00802302249B0504A80C940F95129301F0B2
:10035C001DFE002801D072B6FEE707230290039021
:10036C00210068460093019402F0ACF8002801D0FB
:10037C0072B6FEE7802324905B0413A8139302F05B
:10038C004BF9002801D072B6FEE727B030BD000053
:10039C0070B58AB002F004FDFFF7AAFF1422002109
:1003AC0005A803F0C0FC042101263C4B80255A6BA8
:1003BC0000240A435A635A6BAD010A400192019A18
:1003CC005A6B1C310A435A635A6B35480A400292E5
:1003DC00029A5A6B1E390A435A635A6B0A400392AB
:1003EC00039A5A6B290032435A635B6B00223340E9
:1003FC000493049B02F00AFC00228021294802F09D
:10040C0005FC284805A905950694079402F040FBC5
:10041C00234805A9059506960794089402F038FB25
:10042C008023204805A9059306960794089402F0AA
:10043C002FFB29001B4802F0E3FBB04209D11A4BF9
:10044C001A4A1B68134080229205934201D1FFF790
:10045C0037FF00F02FF8802101228901104802F0AB
:10046C00D5FBC82002F0C2FC8021002289010C4877
:10047C0002F0CCFBC82002F0B9FC01228021094813
:10048C0002F0C4FBC82002F0B1FC00228021054818
:10049C0002F0BCFBC82002F0A9FCDCE70010024013
:1004AC000004005000080050004800080000FC2F19
:1004BC0072B6FEE710B5114C00222000104902F074
:1004CC00B4FC002801D0FFF7F3FF20000D4902F027
:1004DC00C7FC002801D0FFF7EBFF20000A4903F00E
:1004EC00EFFB002801D0FFF7E3FF200002F0CFFC68
:1004FC00002801D0FFF7DCFF10BDC04684020020AD
:10050C00700000202C02002090000020002802D057
:10051C00022801D0032070470120FCE7164B02682B
:10052C0013B59A4223D18022144C9201E36B1343EE
:10053C00E363E36B134080220093009BE36B520553
:10054C00134215D1E36B1343E363E36B1340019345
:10055C00019B02F061FBE36B094A1340E363082043
:10056C000022012102F08EFB082002F0B5FB13BD26
:10057C0002F052FBF3E7C046005C00400010024062
:10058C00FFFFFFEFB02310B59B00C1184033C058DC
:10059C0002F0A8FC10BD28234B43C3188D33FF3346
:1005AC001A68C02310B59B00C05802F0CBFC10BDDC
:1005BC0028234B43C318DA6CC02310B59B00C058DA
:1005CC0002F0FBFC10BDC02310B59B00C05802F01C
:1005DC0099FD10BDC36870B50400022B01D0FFF764
:1005EC0067FFC025AD000121605902F06EFD605916
:1005FC0002F038FD70BD0000C02310B504009B0054
:10060C00C05802F065FDE369002B04D00623024AB2
:10061C0011690B43136110BD00ED00E0C36910B507
:10062C000400002B06D00621054A13698B43136185
:10063C00FFF75EFEC0239B00E05802F055FD10BD95
:10064C0000ED00E0C02370B5040015489B00C450B9
:10065C00144BB1250360082343608360063B0122E1
:10066C00C36043610023AD0060518361C3610262CA
:10067C0043628362C362036300F0F0F9002801D087
:10068C00FFF716FF002260591100182300F0AFFF8E
:10069C00605958230022802100F0A9FF002070BD72
:1006AC0074090020005C0040B12310B59B00C058B9
:1006BC0000F044FAFFF72AFF10BDB12310B59B00E0
:1006CC00C05800F04EFAFFF721FF10BD10B5140012
:1006DC001A002300B124A400005900F0C1FEFFF75A
:1006EC0015FF10BDB12310B59B00C05800F023FFBF
:1006FC00FFF70CFF10BDB12310B59B00C05800F0E4
:10070C0048FFFFF703FF10BDB1239B00C35848B24D
:10071C002822002806DA7F2001404A439B183A33EE
:10072C00187870474A439B187B33FF33F8E7B123A3
:10073C0010B59B00C05800F027FAFFF7E7FE10BD7C
:10074C0010B5B124A400005900F0DAFEFFF7DEFE6C
:10075C0010BD10B5B124A400005900F0B1FEFFF794
:10076C00D5FE10BD10B50400002902D0012910D00F
:10077C0010BDC369002B06D0FFF7BAFD06210C4A49
:10078C0013698B431361C0239B00E05802F0ACFC4F
:10079C00EEE7C0239B00C05802F09AFCE369002BE3
:1007AC00E6D00623024A11690B431361E0E7C04609
:1007BC0000ED00E000487047540500207047000031
:1007CC00122301480B8070475C000020392301483C
:1007DC000B80704720000020042301480B807047D9
:1007EC001C00002070B5002652008A18050FECB2D0
:1007FC0023003733092D00D8073B0B704E700231A4
:10080C0000018A42F2D170BD1A2310B50B800A4B3D
:10081C0018680A4B1B68C01800280AD0084B08221D
:10082C001C680849FFF7DEFF042220000649FFF789
:10083C00D9FF064810BDC0469075FF1F9875FF1F65
:10084C009475FF1F02000020120000200000002001
:10085C0010B5044C0A002100034802F0E8FE200009
:10086C0010BDC046780C0020DC3D000810B5044CCF
:10087C000A002100034802F0DAFE200010BDC04639
:10088C00780C0020F43D000810B5044C0A0021003F
:10089C00034802F0CCFE200010BDC046780C0020AE
:1008AC00F93D000810B5044C0A002100034802F081
:1008BC00BEFE200010BDC046780C0020043E00088F
:1008CC0010B5002304000800934200D110BDE15C78
:1008DC00C1540133F8E70020322390705370D0706C
:1008EC007047F7B506000C0005000192019AAB1B8E
:1008FC009A4201D80020FEBD21002A686B680120B5
:10090C002F0002F02DF800280BD12268396863689B
:10091C0008350834914202D17A689A42E6D0022016
:10092C00E9E70120E7E70000002310B586B001934A
:10093C000233029302330393F8231B06C018C00A38
:10094C00144B04901968C0220C009204124B1440F2
:10095C00114207D080225204944217D10F4A1268D8
:10096C00920213D41B689B05DB0D1B1A01A902A86C
:10097C00059302F043F803000120002B04D10198E9
:10098C000130431E984180B206B010BD1B689B0518
:10099C001B0EEAE70075FF1FE075FF1F20200240C9
:1009AC0010B501F09DFF0028FBD110BD10B501F072
:1009BC0085FF0028FBD110BDFEE7FEE770477047AE
:1009CC0010B502F001FA10BD10B5024800F0F0F8B5
:1009DC0010BDC0467409002007B501210A4BC02088
:1009EC001A6CC0000A431A641A6C0A4080210092E7
:1009FC00009ADA6B49050A43DA63DB6B0B4001930F
:100A0C00019B02F005FA07BD001002400A2382B0D8
:100A1C000193019B002B07D1054BC000C018006847
:100A2C008001800D02B07047019B013BF0E7C0468E
:100A3C00009800400A2382B00193019B002B07D140
:100A4C00054BC000C01840688001800D02B0704793
:100A5C00019B013BF0E7C04600980040F0B5040054
:100A6C008BB00120002C33D0334D635DDAB2002BF8
:100A7C0005D1AE239B002000E254FFF74FFD03236A
:100A8C006355206800F0E8FD002301271900606819
:100A9C0083421FD3002228261100904234D8230011
:100AAC006A46103343CB43C243CB43C243CB43C20E
:100ABC00A268E3686168206800F0D6FD230000227C
:100ACC0034331A7001236355236A012B2FD0002075
:100ADC000BB0F0BD39262822B4465A43A2189444D0
:100AEC00664637703826B446944466463370961D75
:100AFC00F3873B26B4469444664601333170DBB22F
:100B0C009164D1641165C3E733005343E3181F00AC
:100B1C007A37FF3739709133013F3A70F970FF33F0
:100B2C000132103739607960D2B21960B5E7200014
:100B3C0000F077FDCBE7C046B902000070B5AE25DA
:100B4C00AD00435D04000220012B09D00123635545
:100B5C00206800F079FD206800F0F8FE0020605558
:100B6C0070BD70B5AE25AD00435D04000220012BB5
:100B7C0009D001236355206800F06EFD206800F059
:100B8C00EDFE0020605570BD70B5AE25AD00435D27
:100B9C0004000220012B09D00123635523003433B8
:100BAC001970206800F0CCFE0020605570BD00006C
:100BBC00F0B5C14B04001B6887B05B0700D49CE008
:100BCC00006800F0D3FE80231B02184200D0C7E05F
:100BDC00206800F0CBFE40050BD52268B749536C5A
:100BEC0020000B405364FFF7F5FC00212000FFF7B9
:100BFC00CBFF206800F0BAFE400404D52268B0494F
:100C0C00536C0B405364206800F0B0FE800404D594
:100C1C002268AC49536C0B405364206800F0A6FE6C
:100C2C00C0041AD5042123681A6C8A431A641A6CFE
:100C3C0049188A431A64BC239B00E25C012A04D144
:100C4C0000212000E154FFF78DFD2000FFF7E6FCAA
:100C5C0022689D49536C0B405364206800F086FE5B
:100C6C0000050FD5082223682000196C0A431A646A
:100C7C005A6C96490A405A640422196C0A431A6445
:100C8C00FFF7BAFC206800F071FE00061ED5BC20F0
:100C9C0023688F495A6C80000A405A64225C002AEF
:100CAC0000D0CCE3196C04320A431A640822196C84
:100CBC000A4301211A643C2221545B6D20009B08DD
:100CCC001340BD229200A350FFF74CFD206800F0AA
:100CDC004DFE800507D522687E49536C20000B40E1
:100CEC005364FFF770FC206800F040FEC00504D58B
:100CFC0022687949536C0B40536407B0F0BD0F2741
:100D0C000F22736C1F40134200D0A8E0190001326F
:100D1C00114013422BD13368704A200013408022BB
:100D2C00120213433360230038331B786C4ADB0008
:100D3C009B181B68E26C9B019B0D6365D318E364E5
:100D4C00FFF736FC230034331A78002A08D0216DC3
:100D5C002068002904D180251A782A43C2641970AE
:100D6C00802226681202736C1342C8D130E73368B4
:100D7C0080221F001201174013421BD0BC235B00C2
:100D8C00E05CFFF757FE2200B0217932FF32890078
:100D9C000300D06161183000928801F073F821686B
:100DAC00504B0A6820001A40802313430B60FFF756
:100DBC00E9FBD5E71B04D3D532684A4B25001A4012
:100DCC00802313433360BC235B00E05CFFF732FEEF
:100DDC007935FF35031EE8610ED0696900290BD007
:100DEC003000AA8801F04EF86B69EA6939009B184B
:100DFC0020006B61FFF7CFFB21680B681B05AFD49C
:100E0C00374A53689BB253602B69002B09D1536846
:100E1C00354803405360506880231B0603435360DE
:100E2C0009E03E2B11D8012558082B40C0185368F7
:100E3C008006184350600B682C4A1340C022920164
:100E4C005A402B4B13430B608AE71F2558092B4044
:100E5C005D426B41C01A536880061843DCE7BB0047
:100E6C000193F3181A6804926A46128A0292049A41
:100E7C00120400D4AAE0282519681A4A7D431140AF
:100E8C00802265190A431A602B002A008333FF3332
:100E9C001B787932FF32002B2CD11078FFF7CAFD6A
:100EAC00019000286FD02B007D338D35FF33FF353B
:100EBC001A882968030063E0A0000140FFFB0000D2
:100ECC00FFBF0000FFDF0000FFEF0000FFF7000096
:100EDC007FFF0000FFFD0000FFFE00000F8F7F076B
:100EEC00009800408F0F7F07FFFFFF838FBF7F07A6
:100EFC0080800000137803932B007C33FF331B7826
:100F0C00022B00D0C3E08023029ADB011A40059229
:100F1C00029A91350398FF351A4200D18AE0FFF707
:100F2C0075FD2A680300019082420ED200222A60CD
:100F3C00039AD5489200B2181168014080208001B4
:100F4C004840D2490143116002E0121A2A60EFD0E6
:100F5C00029A520608D5039ACD499200B21810682D
:100F6C000840CC4901431160002B0CD02821794357
:100F7C0061180A007F328D31FF32FF311288096807
:100F8C00300000F07FFF2823190079436218150008
:100F9C009535FF352868019E083D8019A8602868A2
:100FAC008019286010009130FF300068002805D0AF
:100FBC008932FF321268964200D389E07B43E318F2
:100FCC007933FF3320001978FFF7E5FA2368019392
:100FDC00049B1B0600D4C3E6019ABB0094466344F1
:100FEC001A68AD490A40802109020A431A60282375
:100FFC007B43E3183B331B78032B06D0002B04D028
:10100C00022B7AD1049BDB0577D428237B43E01891
:10101C00020038321178A14DCA0052191268056DC0
:10102C009201920D95425AD8002303652000FFF7D8
:10103C00BFFA95E6FFF7FEFC2A6803000190824296
:10104C000ED2059A2A60039A8F489200B218116842
:10105C0001408020800148408C490143116002E02E
:10106C00121A2A60EFD0029A520608D4039A8849C1
:10107C009200B21810680840864901431160002B99
:10108C0081D02821794361180A00813273E7039BD0
:10109C007F499B00F318186808407E49014319608A
:1010AC0010788300F3181B685B0408D5FFF7AEFCBF
:1010BC000190002800D166E72B007F33F5E6FFF79F
:1010CC00B9FC0190002800D15DE72B008133ECE6E0
:1010DC007931FF312068611800F078FC76E7C16C3B
:1010EC00AD1A8918C164416D38338A18056542659B
:1010FC00E118019800F06AFC32E628267E43A61916
:10110C00330038331D784023029A28001A4003928A
:10111C00029A1A4200D1D2E0FFF778FC336D00221C
:10112C00834200D91A1A282380267B430299F601A0
:10113C00E31831400E001A65002A40D139331B7870
:10114C00002B2DD1554AEB009B181A68544892B2CB
:10115C001A601A6802401A6080221968120611433C
:10116C001960596889B259605968014059605968C9
:10117C000A435A6029002000FFF71AFA002E00D10A
:10118C00D2E028237B43E31838331A782368920083
:10119C009B1819683E4A1140424A0A431A60C3E040
:1011AC00012BE7D13D4AEB009B181A6892B21A60EA
:1011BC001A681A605A6892B25A605A68D9E70029BC
:1011CC0008D0019AAB00D3181968314A1140354A3E
:1011DC000A431A605C2328229C467A43A218944442
:1011EC0063461B78012B00D09EE0536DD16C1B180D
:1011FC005365966D936C0918D1649E4222D3F61AEE
:10120C00966528227A43A21839321278002A4BD1DB
:10121C00224AED00AD182A6892B22A60002B1DD12B
:10122C002A681F4802402A6080222868120602435E
:10123C002A6028227A439BB2A218D28F019800F020
:10124C0097FB71E0002E03D163461E700300D8E7B4
:10125C0000236046037093653300D2E73E2B06D81B
:10126C0001205A081840121892062868DFE71F2040
:10127C001840464270415A09121A286892060243D5
:10128C0080200006D3E7C0468FBF7F078080000018
:10129C008F8F7F07C08000000F8F7F070098004062
:1012AC00FFFFFF8380C00000012AC2D1664AED0017
:1012BC00AD182A6892B22A6028681A04B7E7FFF7BB
:1012CC00B9FB336D039A834200D31A1A2823802664
:1012DC007B430299F601E31831400E001A65002A8F
:1012EC0042D139331B78002B2FD1574AEB009B1876
:1012FC001A68564892B21A601A6802401A60802224
:10130C001968120611431960596889B259605968F5
:10131C000140596059680A435A6029002000FFF7C0
:10132C0047F9002E00D12CE728237B43E3183833F0
:10133C001A78236892009B181A6845490A40302194
:10134C005140444A0A431A600AE5012BE5D13E4A52
:10135C00EB009B181A6892B21A601A681A605A68E5
:10136C0092B25A605A68D7E7002908D1019AAB00AB
:10137C00D3181968384A1140384A0A431A605C235A
:10138C0028229C467A43A218944463461B78012B6E
:10139C00CAD1536DD16C1B185365966D936C09189B
:1013AC00D1649E421FD3F61A966528227A43A2185E
:1013BC0039321278002A37D1234AED00AD186A6809
:1013CC0092B26A60002B1AD16A68204802406A60A7
:1013DC0080226868120602436A6028227A43A218A7
:1013EC009BB2023229E7002E03D163461E70030024
:1013FC00DBE700239365624613703300D5E73E2B81
:10140C0006D801205A081840121892066868E2E7BC
:10141C001F201840464270415A09121A68689206F9
:10142C00024380200006D6E7012AD6D1064AED00F9
:10143C00AD186A6892B26A6068681A04CBE720003B
:10144C00FFF7DAF842E4C04600980040FFFFFF8344
:10145C00BF8F7F07808000008F8F7F0780C00000C8
:10146C0070B5040007200E0008402821414376B2D5
:10147C006518002E1DDA01263831611839352E70A9
:10148C000A614A780870CB70002A00D08881022B40
:10149C0001D10023CB72AE25AD00635D0220012B80
:1014AC0006D001236355206800F0F4F80020605545
:1014BC0070BD7931FF317A3500266118FF35DEE7D2
:1014CC0070B50724214021344C4305192E008D366C
:1014DC00FF3632602A009132FF3213602B00002657
:1014EC009533FF33793579341E60FF351B3BFF3460
:1014FC001E7029700119006800F068FA300070BD88
:10150C0070B50724282521404D4344192600E26478
:10151C0001225C3623653270A365002623006665C4
:10152C003933383538341A7021704119006800F09D
:10153C004DFA300070BD0722436870B50A400400B4
:10154C0001209A421AD848B22823002817DA5343AC
:10155C00190001203831E318611839331870AE25A1
:10156C0001230A708B70AD00625D02209A4205D097
:10157C006355206800F08AF90020605570BD4B431C
:10158C001900E3187931FF317A3300206118FF33E9
:10159C00E4E70F220B000A40416870B504000120FB
:1015AC008A421CD828210630184041435BB262188D
:1015BC00002B15DA01233831611839320025AE269B
:1015CC001370B60008708D70A35D0220012B06D03D
:1015DC000123A355206800F079F92800A55570BDAA
:1015EC007931FF317A3200236118FF32E6E730B5EA
:1015FC0028240D060BD5072529404C4338340019F7
:10160C0099B2002A07D182728180002030BD4C43F0
:10161C007934FF34F3E701221B0C8272C180038101
:10162C00F3E702680300BE20012110B58000BC2442
:10163C0019500020A4001855536D1943022351650D
:10164C00516D0B43536510BD03000020014A5864D3
:10165C001A64704780BF0000036C024A1340036495
:10166C00002070477F40FFFF84B010B50492012228
:10167C0002640593036C040093430364036C0391AD
:10168C009340D34003640020606410BC08BC04B0D9
:10169C0018470000F7B50A78CE789300C3181D6878
:1016AC007048054001200190032E08D83000FEF749
:1016BC0011FD0238353280208000054301966A4CBA
:1016CC0025431D601F68694D2F40174327431F603A
:1016DC00674FD200D2198F7A002F63D18F88487848
:1016EC00BF08BF00002824D01168090C0904116040
:1016FC001168394311601A68520604D519685D4A9D
:10170C0029400A431A605C4D012E0CD02022196826
:10171C0029404A4009E0C020C00005430020019048
:10172C00CDE78020F8E71A682A4022431A60019816
:10173C00FEBD56680969360C3604566056683E4341
:10174C0056605668B6B25660002909D151684B4EA6
:10175C00314051605668802109063143516009E0DF
:10176C003E2915D801274E08394076185168B6061F
:10177C000E4356601A68520404D51968404A294031
:10178C000A431A603F4A19681140C0229201C0E70F
:10179C001F274E0939404F427941761A5168B606D7
:1017AC000E43D8E71F682F40BC466046364F0743B0
:1017BC001F6017683F0C3F041760CF881068BF0884
:1017CC00BF000743176057683F0C3F0457600F89F1
:1017DC005068BF08BF00074357604A78264F9446AD
:1017EC00802260462749D201002819D11E68164272
:1017FC0004D01E68224A2E4032431A601A685206E0
:10180C0004D51A6815401B4A2A431A601A681140FD
:10181C00C02292014A4022431A601A683A4084E777
:10182C001868104206D01A682A4094466046144A3A
:10183C0002431A601A68520604D51A6815400D4AFC
:10184C002A431A60012E0AD020221D683D406A40AE
:10185C0022431A601A680A4014431C6067E71A682E
:10186C003A40F5E78F897F07808000008F8F7F07D4
:10187C0000980040C0800000BF8F7F07FFFFFF83F0
:10188C0080C000008FBF7F07808100000B784978F3
:10189C009B000B4AC018002908D00168094B19405D
:1018AC0010234B4013430360002070470168064B24
:1018BC00194080235B014B401A430260F4E7C04699
:1018CC0080800000BF8F7F078FBF7F078B7A002B34
:1018DC0019D10B784A789B00C0180368002A14D0E1
:1018EC005B0605D50268104B1A40104B134303607E
:1018FC00CB78012B07D00E4A0368134020225A40A4
:10190C000C4B13430360002070475B0405D5026841
:10191C00054B1A40084B13430360084A03681340F5
:10192C00C0229201EBE7C0468F8F7F07C08000007A
:10193C00BF8F7F078080000080C000008FBF7F07B3
:10194C00002901D18023C364002070478023826D5D
:10195C001B0213438365002070470000836D024A0D
:10196C001340836500207047FF7FFFFF406C70477A
:10197C00F0B50324D81C23401C00651EAC41800824
:10198C00001B114C8000121916000D18A9420ED123
:10199C00002B0BD0002421006E5CCF00BE40013127
:1019AC0034438EB2B342F7D112181460F0BD4C78A8
:1019BC000F7824023C438F783F042743CC780431C2
:1019CC0024063C4310C6E1E700980040F0B54D7882
:1019DC0006000C008B7A85B0012D00D05DE10F69FB
:1019EC008D69BD4200D93D0062690192002B1ED168
:1019FC00ABB2A28830000199FFF7BAFF2378CD4A29
:101A0C00DB009B181A682D0492B21A601A681543F1
:101A1C001D602378C84A9B00F318196811403022C6
:101A2C004A40C6490A431A60002005B0F0BD22782E
:101A3C00C04B9000D200D218E3783018022B00D0A3
:101A4C008CE0236A9F4275D20768BD4B01991F40F9
:101A5C00BC4B3B430360236A4F195B1B2362036837
:101A6C0029049C4640200391614603400293ABB28B
:101A7C0001422FD05068290480B25060506808434E
:101A8C005060228901993000FFF772FF236A2169A7
:101A9C00002267618B4201D95A1B2B0022626278AB
:101AAC00002A00D0A7E02278A249D200521811686F
:101ABC0089B21160002B00D088E01168A248014067
:101ACC00116080211068090601431160E2889BB205
:101ADC0039003FE01068290480B210601068084398
:101AEC001060E28830000199FFF742FF236A2269F7
:101AFC006761934202D95B1B02932B00029A22620C
:101B0C006278002A00D0BBE022788A49D2005218B1
:101B1C00516889B25160002B00D09CE051688A4812
:101B2C0001405160802150680906014351602289AF
:101B3C009BB2CDE70568854F80493D400D4305605C
:101B4C001068019980B21060156818042843106061
:101B5C00E2889BB23000FFF70BFF5AE70768784B1F
:101B6C0001991F40774B3B430360236A4F195B1B62
:101B7C002362036829049C4640200391614603407C
:101B8C000293ABB2014243D05068290480B250603A
:101B9C00506808435060228901993000FFF7E8FE35
:101BAC00236A2169002267618B4201D95A1B2B00E1
:101BBC002262002B00D12CE76278002A1BD12278FC
:101BCC005C49D2005218116889B211603E2B06D8BC
:101BDC0001205908184009188906106874E71F205D
:101BEC001840454268415909091A10688906014391
:101BFC008020000668E7012A00D067E722784D496B
:101C0C00D2005218116889B21160106819045BE790
:101C1C001068290480B21060106808431060E288D4
:101C2C0030000199FFF7A4FE236A22696761934291
:101C3C0002D95B1B02932B00029A2262002B00D16B
:101C4C00E7E66278002A1BD122783A49D200521872
:101C5C00516889B251603E2B06D8012059081840B2
:101C6C0009188906506860E71F20184045426841F2
:101C7C005909091A5068890601438020000654E767
:101C8C00012A00D053E722782A49D2005218516811
:101C9C0089B251605068190447E7002B1AD18A6940
:101CAC0009698A4201D9531A0A00A3612378214990
:101CBC00DB005B18596889B25960002A00D0BEE07D
:101CCC005A6821490A405A605968802212060A4310
:101CDC005A6065E0CB78022B7BD10978002D4DD171
:101CEC00144ACB009B181A6892B21A602269002A17
:101CFC0017D11868144D2840186080201D68000604
:101D0C0028431860586880B25860002A2CD15A6851
:101D1C000D4802405A6080225868120602435A60ED
:101D2C002CE03E2A14D80125500815404019800695
:101D3C001D68E5E700980040BF8F7F07808000009A
:101D4C008F8F7F0780810000FFFFFF838F8E7F07BF
:101D5C001F2515406F427D415009401B1D688006B0
:101D6C00284380252D06CBE73E2A26D8012550088E
:101D7C002A4080185A68800610435860E369002B8B
:101D8C000ED08B00F3181A6837490A408A4201D0EA
:101D9C00002A05D11968354A1140354A0A431A60A0
:101DAC002378344A9B00F61833681340C022920102
:101DBC005A40314B1343336036E61F2550092A40F5
:101DCC0055426A41801A820680205D6800062A43CB
:101DDC00A4E70120834200D027E68A690B69002121
:101DEC009A4201D9D11A1A00A161002DD8D12378B9
:101DFC002249DB005B18196889B21960002A09D1E5
:101E0C0019681F48014019608021186809060143B0
:101E1C0019604FE73E2A06D80120510810400918D6
:101E2C0089061868F3E71F201040454268415109A4
:101E3C00091A18688906014380200006E7E73E2A44
:101E4C0008D801205108024089185A6889061143A4
:101E5C005960A5E71F205109024050424241891A9E
:101E6C005A688906114330E7404000008F8F7F0786
:101E7C00C08000008FBF7F0780800000009800406A
:101E8C00FFFFFF83F0B50324D81C2340114C8008BE
:101E9C0012191C00651EAC411600001B84000D19A4
:101EAC00A9420DD1002B0AD012191068002204008F
:101EBC00D100CC40AC54013291B28B42F7D1F0BD81
:101ECC0001CE070A08704F70070C000E8F70C87097
:101EDC000431E5E70098004070B500F081FF8023E5
:101EEC0080260500244C5B002268F6001343236017
:101EFC00236833422BD08023DB01636000F070FF3A
:101F0C00002305003826A360A368334226D1802322
:101F1C005B002360236000F063FF80260500B6049D
:101F2C0023681A00324033421FD180235B01E360E7
:101F3C0001235B42A2612362104A114B1A60114BC0
:101F4C00186800F005FF431E9841C0B205E000F090
:101F5C0047FF401B0228CBD9032070BD00F040FF87
:101F6C00094B401B9842CFD9F6E700F039FF401BD4
:101F7C000228D5D9F0E7C046001002400024F40036
:101F8C00B4000020B000002088130000F0B504005D
:101F9C0085B0002827D00368DB0714D423689B077F
:101FAC0062D423681B0700D5C6E023685B0700D505
:101FBC00F7E023689B0600D565E1236A002B00D06F
:101FCC00A5E1002029E03822BB4DAB681340EA683C
:101FDC00102B0AD1D3439B0709D12B689B03DDD56A
:101FEC006368002BDAD1012017E0082BF5D0802292
:101FFC0063685202934212D12A6813432B6000F09B
:10200C00EFFE80270600BF022B683B42C6D100F0D2
:10201C00E7FE801B6428F7D9032005B0F0BDA02192
:10202C00C9028B4208D180232968DB020B432B6049
:10203C002B681A432A60E2E72A68A0490A402A6002
:10204C002A689F490A402A60002BD8D100F0C8FEAC
:10205C0080270600BF022B683B429FD000F0C0FED9
:10206C00801B6428F7D9D7E73822934DAB6813400F
:10207C00EA68102B27D103210A40022A25D12A68AD
:10208C00520502D5E268002AADD0696862698D48B4
:10209C00120201400A436A60002B0CD12B688A4A59
:1020AC008A491340226913432B602B68884A9B048E
:1020BC005B0FDA400A60874B186800F049FE002875
:1020CC0000D16EE78FE7002BD9D0E368002B20D02E
:1020DC002B687D4A802713402269FF0013432B6035
:1020EC0080232A685B0013432B6000F079FE060006
:1020FC002B683B4207D06A68636972491B020A402D
:10210C0013436B604DE700F06BFE801B0228EFD988
:10211C0082E72B68704A802713402B6000F060FE2A
:10212C000600FF002B683B4200D13AE700F058FE56
:10213C00801B0228F6D96FE738225F4DAB6813403D
:10214C00182B08D12B6E9B0700D42EE7A369002B0C
:10215C0000D02AE747E7A2690123002A10D02A6E93
:10216C00022713432B6600F03BFE06002B6E3B420E
:10217C0000D01AE700F034FE801B0228F6D94BE79A
:10218C002A6E02279A432A6600F02AFE06002B6E5E
:10219C003B4200D109E700F023FE801B0228F6D950
:1021AC003AE73822444DAB681340202B08D1EB6D35
:1021BC009B0700D4FDE6A368002B00D0F9E612E7DC
:1021CC0080220021EB6B52050091134208D1EB6B7E
:1021DC001343EB63EB6B13400393039B01230093BB
:1021EC0080273E4E7F0033683B4215D0A368012BFD
:1021FC0022D1EA6D1343EB6500F0F2FD02270600D5
:10220C00EB6D3B4238D0009B012B00D0D1E6EB6B41
:10221C00334A1340EB63CCE633683B43336000F046
:10222C00DFFD019033683B42E0D100F0D9FD019B0A
:10223C00C01A0228F6D9EFE6EA6D052B05D1013B51
:10224C001343EB65EA6D0123D4E701218A43EA6568
:10225C00EA6D03318A43EA65002BCDD100F0C0FD55
:10226C0002270600EB6D3B42CDD000F0B9FD1D4BB3
:10227C00801B9842F6D9CFE600F0B2FD194B801BBB
:10228C009842BDD9C8E6E3690B4D002B2CD08023B6
:10229C002A68DB0313432B6000F0A2FD80270600A5
:1022AC003F042B683B4200D087E600F099FD801B71
:1022BC000228F6D9B0E6C04600100240FFFFFEFF30
:1022CC00FFFFFBFFFF80FFFFFFC7FFFFB4000020F5
:1022DC000024F400B0000020FFFEFFFF007000405F
:1022EC00FFFFFFEF881300002B684F4A8027134035
:1022FC002B6000F075FD06003F042B683B4200D1BB
:10230C005BE600F06DFD801B0228F6D984E63821CF
:10231C00464DAA680A40102A57D0454A022B3AD19A
:10232C002B68802713402B6000F05AFD0600BF0479
:10233C002B683B4229D1A16A636AEA680B433D4989
:10234C0080260A401343226BB6041343626B13437B
:10235C00A26B1343E26A12021343EB6080232A68D8
:10236C005B0413432B608023EA685B051343EB602B
:10237C0000F036FD04002B68334200D021E600F05B
:10238C002FFD001B0228F6D946E600F029FD801B24
:10239C000228CDD940E62B688026134003222B60FF
:1023AC00EB68B6049343EB60EB68234A1340EB6095
:1023BC0000F016FD04002B68334200D101E600F05A
:1023CC000FFD001B0228F6D926E6012B00D10AE6E8
:1023DC000322E868616A02408A4200D003E6702258
:1023EC00A16A02408A4200D0FDE5FE21E26AC901E1
:1023FC0001401202914200D0F5E5F822216B9203C4
:10240C0002408A4200D0EEE5E022616B12050240E8
:10241C008A4200D0E7E5A36B400F4007C01A431E69
:10242C009841C0B2F9E5C046FFFFBFFF0010024063
:10243C00FFFFFFFE8C80C111FFFFFEEE382370B54D
:10244C001D4CA2681A4205D123681C489B045B0FE3
:10245C00D84070BDA2681A40082A27D0A2681A403A
:10246C00102A17D1E368E168DB43E5684906490F98
:10247C006F322D0A013115409B0709D11048FDF729
:10248C0047FEE1686843490F0131FDF741FEE0E783
:10249C000A48F4E7A2681A40202A09D0A268002052
:1024AC001340182BD5D1FA20C001D2E70448D0E74D
:1024BC0080200002CDE7C046001002400024F4004A
:1024CC0000127A00F7B504000D00002801D101209C
:1024DC00FEBD0727484E33683B408B422AD3226807
:1024EC0093073BD4D20748D4072733683B40AB4211
:1024FC000AD93368BB432B43336000F071FC019065
:10250C0033683B40AB4268D123683C4D5B076CD4CD
:10251C00FFF794FFAB683A491B051B0F9B005B58F8
:10252C001F210B40D840374A374B1060186800F019
:10253C000FFCCDE73368BB430B43336000F050FC1A
:10254C00019033683B40AB42C9D000F049FC019B81
:10255C00C01A2E4B9842F4D90320B9E727495307E8
:10256C0004D5E0238868DB0103438B608B68284823
:10257C000340A06803438B60B4E760681F4F0328D7
:10258C0029D8FDF7A7FD20021C243B689B039ED590
:10259C000722BB6893430343BB6000F021FC01900E
:1025AC003823BA681A406368DB009A429CD000F06A
:1025BC0017FC019BC01A154B9842F1D9CCE73B682C
:1025CC009B01E5D483E73B685B05E1D47FE73B6E79
:1025DC009B07DDD47BE7FB6DFAE700F001FC019B68
:1025EC00C01A0A4B98428BD9B6E7AB68094A13401C
:1025FC00E2681343AB608BE70020024000100240FE
:10260C00443E0008B4000020B000002088130000F5
:10261C00FFF0FFFFFF8FFFFFF0B50368040085B0EC
:10262C0000209B0352D58022974D5205EB6B0090F6
:10263C00134208D1EB6B1343EB63EB6B1340039327
:10264C00039B012300938027904E7F0033683B430C
:10265C00336000F0C5FB019033683B4228D0EA6D33
:10266C00C02310009B00216C894E18401A4218D0D0
:10267C00884216D08022EB6DE86D1900520202439D
:10268C00EA65EA6D834831400240EA65E965DB079B
:10269C0007D500F0A5FB07000222EB6D134200D119
:1026AC00E9E0EB6D226C334013430020EB6506E050
:1026BC0000F096FB019BC01A0228CDD90320009B89
:1026CC00012B03D1EB6B744A1340EB632368DA07DD
:1026DC0006D503256C494A6DAA4365682A434A65A9
:1026EC009A0706D50C2568494A6DAA43A5682A4362
:1026FC004A655A0706D5302563494A6DAA43E568F1
:10270C002A434A65DA0606D55F49644D4A6D2A406C
:10271C0025692A434A65DA0406D55B495C4D4A6D46
:10272C002A4065692A434A659A0506D556495C4D87
:10273C004A6D2A40A56A2A434A655A0506D552496C
:10274C00584D4A6D2A40E56A2A434A659A0606D5D1
:10275C004D49554D4A6D2A40A5692A434A655A068A
:10276C0006D54949514D4A6D2A40E5692A434A65C7
:10277C005A040FD54449256B4A6D920092082A439E
:10278C004A658022D205954204D18022CD6852023E
:10279C002A43CA601A0306D540253B494A6DAA4311
:1027AC00656B2A434A659A020FD53749404E4A6DEC
:1027BC00A56B32402A434A658022D203954204D14C
:1027CC008022CD6852042A43CA605A020DD52E4D80
:1027DC00384E696DE26B31401143696580214904C3
:1027EC008A4202D1E9680A43EA601A050DD503262C
:1027FC002549256A8A6DB2432A438A65012D04D185
:10280C008022CD6852022A43CA609A040DD50C2648
:10281C001D49656A8A6DB2432A438A65042D04D129
:10282C008022CD6852022A43CA6080256D042B4257
:10283C000DD015491C4F8A6D666C3A4032438A653F
:10284C0080229201964202D1CA681543CD609B0149
:10285C000FD50D4AA16C936D0D4C23400B43936522
:10286C0080235B00994204D18023D1685B040B4325
:10287C00D36005B0F0BD00F0B3FA0F4BC01B98420B
:10288C0000D809E71AE7C04600100240007000406B
:10289C00FFFCFFFFFFFFFEFFFFFFFFEFFFF3FFFF5C
:1028AC00FFFFF3FFFFFFCFFFFFCFFFFFFF3FFFFF58
:1028BC00FFFFBFFFFFFFFFFE881300000020054B4A
:1028CC005A69824205DA044A9A60044A9A60586945
:1028DC00C00F70470020024023016745AB89EFCD44
:1028EC008022044B120659690A435A615869C04345
:1028FC00C00F704700200240F8B50500C02700F05B
:10290C006FFABF024619124C23693B420BD1226964
:10291C00104B11001048194020611A4209D00F4B7E
:10292C000120596004E000F05BFAB042EBD30320C5
:10293C00F8BD00F055FA80264519F60223691800F7
:10294C0030403342F4D000F04BFAA842F6D3EEE715
:10295C0000200240FAC30000FBC30800780E0020E0
:10296C00F7B5174E0193337804000D000220009246
:10297C00012B1ED00123FA203370002380007360DA
:10298C00FFF7BAFF002812D10E4F012C12D17B6930
:10299C0023437B61009B2B60BFF36F8F019B6B60AC
:1029AC00FA208000FFF7A8FF7B69A3437B6100231B
:1029BC003370FEBD2800009901F0EEF9F0E7C04637
:1029CC00780E002000200240084A536904280AD0DF
:1029DC0007480340802080010343C9001943054B7D
:1029EC000B435361704704480340F6E70020024054
:1029FC0007FCFFFF0200010007DCFFFFF7B5224FC9
:102A0C0005003B7802240191012B1BD00123FA20F5
:102A1C003B70002380007B60FFF76EFF041E0FD11C
:102A2C002B68042B10D119496B684A69FA201A4398
:102A3C0080235B0213434B618000FFF75DFF0400B2
:102A4C0000233B702000FEBD0123019A5B42136002
:102A5C00AE68AB68EA689B18B3420CD96868310061
:102A6C00FFF7B2FFFA208000FFF746FF002808D0DE
:102A7C000400019B1E600221044A53698B4353617D
:102A8C00DEE70136E5E7C046780E00200020024064
:102A9C000023F0B585B00A681400DC4001D105B004
:102AAC00F0BD012514009D402C4000942A4200D119
:102ABC0095E04A685F009446032264462240032452
:102ACC00BC40E4430194541E012C2ED88668019C12
:102ADC002640CC68BC403443846044680126AC4337
:102AEC0025006446240934409C402C434460C5684E
:102AFC00019C25408C68BC402C43C460022A16D132
:102B0C0007250F261D40AD00AE40DC08A4000419BB
:102B1C000294246A03962600039CA64334000E6993
:102B2C00AE402643029C266201E0032ADFD1BA4064
:102B3C000468019D25402A43C02402606246A40219
:102B4C0022424CD0274A03259C08A400A4180F222B
:102B5C001D40ED00AA40A027266EFF0596430022DB
:102B6C00B84210D0204F0132B8420CD01F4F013266
:102B7C00B84208D01E4F0132B84204D01D4A821808
:102B8C00571EBA410432AA406746324322661A4A9B
:102B9C00009CD66F009DE4433543FF0301D4350000
:102BAC0025406746D567154D009EEA6F1643BF0357
:102BBC0001D42240160067460A4AEE671668009D4B
:102BCC003543FF0201D43500254067461560556832
:102BDC00009E2E43BF0201D425402E0056600133C7
:102BEC0059E7C0460018024000040050000800508D
:102BFC00000C005000F0FFAF04180240081802400F
:102C0C0000690840431E9841C0B27047002A01D0A9
:102C1C00816170478162FCE78023034ADB005168C5
:102C2C000B4353607047C0460070004010B5114C08
:102C3C001149236802000B400343236080230020CA
:102C4C009B009A420ED10D4B0D4918680623584330
:102C5C00FDF75EFA8022431CD20061690800104027
:102C6C00114200D110BD002B01D0013BF5E7032030
:102C7C00F8E7C04600700040FFF9FFFFB4000020E9
:102C8C0040420F0010B5FF2403220B00210002402C
:102C9C00D20091409B012340C943934000280ADB9A
:102CAC00C0240B4A800880008018A40002590A40F6
:102CBC001343035110BD0F2210400838054A8008F9
:102CCC0080008018C26911401943C161F2E7C04607
:102CDC0000E100E000ED00E0002805DB1F231840B8
:102CEC001E3B8340014A13607047C04600E100E080
:102CFC008022431E5204012093420DD2C021074A68
:102D0C0007485360036A09061B021B0A0B43036244
:102D1C0000200723906013607047C04610E000E06D
:102D2C0000ED00E070470000012210B50024074BB5
:102D3C005242DA62DC621A631C639A629C625A62C7
:102D4C005C62FFF7EFFF200010BDC0460010024090
:102D5C0070B5104B05001978002901D1012070BD08
:102D6C00FA208000FDF7D4F90B4C01002068FDF728
:102D7C00CFF9FFF7BDFF041EF0D1032DEED80200F2
:102D8C00012029004042FFF77DFF044B20001D600D
:102D9C00E5E7C046AC000020B4000020B0000020E5
:102DAC008023084A5B00116810B50B4303201360A5
:102DBC00FFF7CEFF041E03D1FDF70EFE200010BD61
:102DCC000124FBE700200240034A044B11681B78E6
:102DDC005B1813607047C046940E0020AC000020B6
:102DEC00014B18687047C046940E002070B5040063
:102DFC00FFF7F6FF0500631C02D0044B1B78E418A8
:102E0C00FFF7EEFF401BA042FAD370BDAC000020D0
:102E1C00034A044913680B40034313607047C046D0
:102E2C0000000140FFF9FFFF7047030010B50320BD
:102E3C00002B14D0AE240020A400185108341851D3
:102E4C000C341851814202D0AD2080001950A721BA
:102E5C0001208900585418001A70FDF7F3FB10BDBF
:102E6C0013B56B460400981D00230380033300291F
:102E7C0006D0AE239B00E150CB6A002B02D100237D
:102E8C00180016BD9847B3239B00E050F7E710B528
:102E9C00FDF70AFC10BD10B50400FDF70EFCAE23C7
:102EAC009B00E358002B04D0616820005B68C9B21A
:102EBC009847002010BDAE239B00C25810B50323C9
:102ECC00002A02D0136898470300180010BDAE23E7
:102EDC009B00C35810B5002B01D05B6898470020AD
:102EEC0010BD0000164B70B5C5180400280000F08A
:102EFC0080FBA52301229B00E2501C33E25A183BB5
:102F0C00E2500F4BE15C1F230B40012B08D0022B2E
:102F1C000BD0002B0ED12900200000F011F970BD50
:102F2C002900200000F0A0FAF9E72900200000F0A9
:102F3C00C5FAF4E77F2320009943FDF7D3FBEEE7B6
:102F4C00AA02000010B504001000002927D1A52307
:102F5C009B00E358032B0FD121005531FF318B68B7
:102F6C00CA6893420AD99B1A8B609A4200D91A00FC
:102F7C000100200000F09EFB002010BDA7239B0049
:102F8C00E35C032B07D1AE239B00E3581B69002B9A
:102F9C0001D020009847200000F094FBECE7A72319
:102FAC009B00E35C032BE7D1AE239B00E3589B69AA
:102FBC00002BE1D020009847DFE770B50D0004002E
:102FCC001100002D40D1A5239B00C358022B0DD11D
:102FDC00C369026A934212D99A1AC26100F052FB79
:102FEC002B002A0029002000FDF7B3FBA8239B002F
:102FFC00E25C012A01D10022E254002070BD934210
:10300C000DD1826993420AD8A626B60083599A42FA
:10301C0005D22A00290000F035FBA551E0E7A723D3
:10302C009B00E35C032B07D1AE239B00E358DB68CA
:10303C00002B01D02000984780212000FDF752FB87
:10304C00200000F04BFBD1E7A7239B00C35C032BB4
:10305C00D3D1AE239B00C3585B69002BCDD0290084
:10306C009847CBE7A723012200219B0070B5C254DF
:10307C00083BC15010334160C1501433C358040095
:10308C0003208B4220D0AF229200A2588A4204D057
:10309C005B688B4201D0200098470022402311002E
:1030AC002000FDF713FBB22301265B00E652230040
:1030BC004025FC335D6600222B0080212000FDF7AB
:1030CC0005FB0020A684256270BD017400207047AA
:1030DC00A7229200835C0349DBB24354042383543C
:1030EC00002070479D020000A7229200835C042BF5
:1030FC0003D1034BC35CDBB2835400207047C04642
:10310C009D020000AE239B00C25810B50323002A79
:10311C0008D0A7239B00C35C032B02D1D369002BDF
:10312C0002D10023180010BD9847FAE710B504002F
:10313C008021FDF7D7FA00212000FDF7D3FA10BD4E
:10314C0060220B7873B5134004000D00202B0CD0BB
:10315C00402B05D0002B31D02000FFF7E7FFE2E039
:10316C004B78012B0BD0022B19D0AE239B00E358CC
:10317C00290020009B6898470500280076BD002296
:10318C008B881100022B06D1EB881A1C202B00D93E
:10319C002022B14992B2200000F066FAC3E000226E
:1031AC008B881100072BF6D1E9882633FF330A1CD4
:1031BC00994200D91A1CA94992B2ECE7487809281F
:1031CC00CAD8FCF791FF1A013901C9FF3101C9FFB7
:1031DC008F000A00C9FF0301B20000236A46D380A6
:1031EC004988080A01380E28B6D8FCF769FF102A5E
:1031FC0039B5B5626EB5B5B5B5B5B5B50800AD2385
:10320C009B00E358DB69002BA6D0207C04E0AD23A7
:10321C009B00E358207C1B686A46911D9847E988FF
:10322C00002900D1B5E06B46DA88002A00D193E77B
:10323C000B1C914200D9131C69469AB2CB80010039
:10324C00A9E7AE23227C9B00E358002A06D19B6A97
:10325C006A46901D984702234370E0E7DB6AF7E764
:10326C00C9B205290AD8AD23481E9B00E35804288F
:10327C0013D8FCF72FFF1416181A1C000020EE2987
:10328C00CDD0AE239B00E3589B6B002B00D163E7A2
:10329C006A46200006329847C1E75B68B3E79B6833
:1032AC00B1E7DB68AFE71B69ADE75B69ABE79B692F
:1032BC00A9E7237C002B00D04EE7AE236A469B0087
:1032CC00E358901D5B6B9847A9E7237C002B00D03B
:1032DC0042E7AE236A469B00E358901D1B6B984750
:1032EC000723B9E78B88002B00D035E7CB88002B60
:1032FC0000D031E74D887F2D00D92DE7A726B600E9
:10330C00A35D032B00D127E7554BEDB2E554290003
:10331C002000FDF70CFA200000F0D4F90123002D59
:10332C0000D00223A355002527E789784D4D29703D
:10333C00012904D92000FFF7F9FE03251DE7A72674
:10334C00B600A35DDAB2022B09D0032A19D02000F3
:10335C00FFF7ECFE20002978FFF7B9FDEDE7002917
:10336C0017D0012120006160FFF7A5FD05002000AA
:10337C00002D02D0FFF7DAFEFFE600F0A3F90323DD
:10338C00D0E7002909D102232000A3556160FFF783
:10339C009EFD200000F096F9C5E761680129F8D080
:1033AC00C9B22000FFF793FD297820006160FFF778
:1033BC0082FD051EEDD02000FFF7B8FE61682000ED
:1033CC00C9B2FFF784FD0223A355D6E6CA88012AA9
:1033DC0000D0C1E6A7239B00E15CCBB2022907D841
:1033EC00002B00D1B8E600232100A3600831D2E6FF
:1033FC00211D032B00D1CEE6AEE6A7239B00E35C98
:10340C00013B022B00D9A7E6CB88022B00D0A3E608
:10341C00A9239B00E2580123002A00D0023321008B
:10342C000222E3600C31B6E64B88012B00D07AE720
:10343C00A9229200A350ACE7A7239B00E35C013BBD
:10344C00022B00D988E64B88012B00D06BE7A9230F
:10345C0000229B00E2509CE7E4010020B800002011
:10346C009E020000980E002060230A7870B513406D
:10347C0004000D00520601D5402B1AD1A7239B0046
:10348C00E35C013B022B14D82B79012B11D8AE2312
:10349C009B00E35829009B6820009847EB880600A6
:1034AC00002B04D1002802D1200000F00BF93000D1
:1034BC0070BD2000FFF73AFE0026F8E770B50B78D8
:1034CC000D008A8860210B40040018004918203830
:1034DC00084258D0002B03D02000FFF727FE3DE018
:1034EC006B78D1B2012B3BD0032B21D0002BF3D125
:1034FC00A7239B00E35CD8B2022B56D00328EBD158
:10350C000F2314250B406B43E31812065ED59B8CDE
:10351C00002BE1D07F230B4001335D4365198029DB
:10352C0060D02000FDF7F0F8002860D001235AE0AD
:10353C00A7239B00E35CDAB2022B2CD0032ACBD15D
:10354C006B88002B07D14B0605D0EB88002B02D1E2
:10355C002000FDF7C7F8200000F0B4F8002070BD83
:10356C00A7239B00E35CDAB2022B14D0032AB3D15D
:10357C006B88002BF2D14B0602D02000FDF7BBF874
:10358C00200000F09FF8AE239B00E3582900200098
:10359C009B689847E3E74B069ED02000FDF7A2F806
:1035AC0080212000FDF79EF8D8E7490600D093E76C
:1035BC0021005531FF31120601D54139FF39002365
:1035CC0002220B60200000F04FF8C7E76533FF3391
:1035DC001B88002B00D17FE74D435535FF3565190E
:1035EC0000299ED100232B6002222900EAE72860E3
:1035FC00FAE70B7803704B784370CB788A781B0210
:10360C00134343804B790A791B0213438380CB7994
:10361C008A791B021343C380704710B504008021C4
:10362C00FDF760F800212000FDF75CF810BD70B5C7
:10363C0004000D00160000280DD0FCF739FDC3B2B4
:10364C0001335B0033802B70032300216B70013B33
:10365C002278002A00D170BDEA545A1CD2B202332F
:10366C000134A954DBB2F3E71300A52210B50224F0
:10367C00920084500A0083610021C361FDF760F859
:10368C00002010BD10B513000A000021FDF758F8FA
:10369C00002010BD1300A52210B503249200845005
:1036AC000200FC32D36513660A000021FDF751F8C5
:1036BC00002010BD10B513000A000021FDF749F8D9
:1036CC00002010BDA52304229B0010B5C25000237E
:1036DC001A001900FDF734F8002010BDA5230522AF
:1036EC009B0010B5C25000231A001900FDF731F8E9
:1036FC00002010BD1B2303800048704710020020DF
:10370C00002070470A230380004870470402002001
:10371C00030010B50020062908D8B0218900044CFC
:10372C005B5821001868FFF782FF200010BDC046CF
:10373C00990E0020F8B5AF239B00C358002B13D073
:10374C000022134904275A5412498326097D124D2D
:10375C000C00F6003C40394207D006200F49985522
:10376C005A555A520E4A9854F8BD08220B499A558C
:10377C005C555C520A495A54FFF78DFBBFF34F8FCF
:10378C00084B094ADA60BFF34F8FC046FDE7C046CD
:10379C0019040000100200201104000012040000A3
:1037AC001404000000ED00E00400FA05AF239B00B8
:1037BC0037B5C4580433C358002C01D103203EBD87
:1037CC008322D200A25C042A56D18022D200A158B6
:1037DC002C4D002943D16259012A11D0052A34D12C
:1037EC002278212A1DD1A37862781B021343E27838
:1037FC0012041A4323791B0613438122D200A350CF
:10380C0080220023D20083216351A3500322C900DC
:10381C0062541D4963541D4963521D4BE2540020F0
:10382C00CDE7412ACAD1A178627809021143E27826
:10383C00207912040A43000610438122D200DB686F
:10384C00A05098470028DBD0B8E76B466A46197041
:10385C00012361516946D380FFF7DFFED0E70129D0
:10386C00CED08122D200A2580239890289182000B8
:10387C001B6962599847E5E7072A9FD1FFF75AFF62
:10388C00CDE7C0460404000011040000120400003F
:10389C0014040000AF230022F0B59B0085B0C4587F
:1038AC0002AB063305001A80944200D179E1087806
:1038BC00603206001640104200D156E1202E00D096
:1038CC006CE14878062800D968E1FCF717FC29015F
:1038DC0007003D00A600F9000B0110018322C888E7
:1038EC00D200A35C00281CD0022B02D0052B00D0E8
:1038FC0081E080234A88DB00E250021C984200D908
:10390C001A1CB94B832192B2E2500323C9006354B1
:10391C00B649280063542100FFF7BCFE002005B017
:10392C00F0BD052B01D0022B65D183235B00A35284
:10393C000023AF4A2800A354AE4AA3520622AB4B35
:10394C00E254FFF7F7FEE9E7B02383269B00EB5820
:10395C00F6000193CA88002A56D0A35D183E022BAC
:10396C0001D0092B4BD14B88171CA351B24201D962
:10397C00A14E3788BEB20096009F9B4EA7511436BD
:10398C00B4469B4F9B4E002B14D1032A00D8092020
:10399C006346E0540023E355A353944B0322E054B5
:1039AC0084239B01238041232100A3702800FFF76F
:1039BC005BFEB3E7012B16D009226146625400214D
:1039CC00023B98028123E155A1538849DB006254E4
:1039DC00E3582100C018019B009A5E69B047824BE6
:1039EC000100E258E2E70F236246A3540022E2559D
:1039FC00A2537E4AA3542800FFF70FFE8EE7002344
:103A0C00794AA350A351F6E702237949A35562548E
:103A1C0078496252754AA35480E7B02383228221ED
:103A2C009B00D200E858A35CC9006618032B04D095
:103A3C00062B2AD006223100B8E76B4B6C4FE358AB
:103A4C00BC466A496B4F002B18D00423A3540022A8
:103A5C006346E254E253042381226354D200836907
:103A6C00A058083AA158002905D12278412A02D140
:103A7C0032009847DEE732000121FAE70520A05416
:103A8C006246A354E3536054D4E75C4BE35C012BD4
:103A9C0009D10721A154564AA3540022554BE25296
:103AAC00524BE154C6E7002BC4D15549097D490757
:103ABC00C0D50221A1544E4AA3544E4AA352EFE75B
:103ACC0083238220DB00E15C484AC0000A2905D12F
:103ADC000839E15400232350A1521FE70A21E15475
:103AEC000E23F8E78323DB000122E1185EE7832134
:103AFC00C900625C092A00D910E79B239B00D340C4
:103B0C00DB0700D40AE70222002362540839635011
:103B1C00364962528022D200A350334AA350FDE6AC
:103B2C008320C000225C092A10D89B239B00D34021
:103B3C00DB070BD5022200232254083823502B48D4
:103B4C0022528022D200A350274AA3502C4B5B7DDB
:103B5C00DB0606D52800FFF79EF92800FFF797F93A
:103B6C00DCE64888FFF742F9D8E648780B2815D8E8
:103B7C00FCF7BAFA0C00D4FE140014001400140064
:103B8C00190014001400140028002F00A722920022
:103B9C00AA5C032A02D11900013A07E72800FFF7B3
:103BAC003CFD0320BBE600224B8810001B0A212B96
:103BBC0006D1CB881A1C092B00D90922114892B2C4
:103BCC000100F3E6A7239B00EB5C032BE6D10E4B25
:103BDC008AE78B78002BE1D1A7229200AA5C032AFA
:103BEC00DCD1094A9AE7C046040400001404000022
:103BFC001104000012040000843E000819040000A7
:103C0C0010020020220200200C04000070B5AF2628
:103C1C00B600835905000220002B16D08022002408
:103C2C008321D2009C50094AC9009C505854083931
:103C3C005C5407495854B0239B00EB589B68984739
:103C4C00A859FCF7BBFD2000AC5170BD040400006A
:103C5C001404000070B504001348FCF7ABFDAF2250
:103C6C00030092000220A350002B00D170BD8322D0
:103C7C008021D20098520022C9005A500B490C4D99
:103C8C005A5004315D500B495A5004315A500A4A6B
:103C9C009852B0239B00E3585B68984703000320BD
:103CAC00002BE3D11800E1E71C0400000404000021
:103CBC00004800080C0400001404000000207047A9
:103CCC0003000320002903D0B02200209200995059
:103CDC00704700000D488546FFF7A6F80C480D49C3
:103CEC000D4A002302E0D458C4500433C4188C424B
:103CFC00F9D30A4A0A4C002301E013600432A242B1
:103D0C00FBD300F019F8FCF743FBFEE70040022060
:103D1C000000002068020020903E0008680200208D
:103D2C00980F0020FEE703008218934200D17047E1
:103D3C0019700133F9E7000070B500260C4C0D4DDD
:103D4C00641BA410A64209D1002600F019F80A4CF5
:103D5C000A4D641BA410A64205D170BDB300EB58EC
:103D6C0098470136EEE7B300EB5898470136F2E777
:103D7C00883E0008883E00088C3E0008883E0008FB
:103D8C00F8B5C046F8BC08BC9E467047F8B5C046AE
:083D9C00F8BC08BC9E4670470C
:103DA40080220C4B30B55C69D20222435A61EFF396
:103DB400108272B64C1CFF34401A0D684550043111
:103DC400A142FAD1C021890218690842FCD182F3C8
:083DD400108830BD0020024000
:103DDC0053757065726C617469766520496E737485
:103DEC0072756D656E7473005342303100444655E4
:103DFC0020436F6E6669670044465520496E7465B2
:103E0C0072666163650040496E7465726E616C2008
:103E1C00466C6173682020202F3078303830303079
:103E2C003030302F30312A3031384B612C30312A40
:103E3C003233384B67000000000000000000000027
:103E4C000000000000000000000000000000000066
:103E5C000000000000000000010000000200000053
:103E6C000300000004000000060000000700000032
:0C3E7C0008000000090000000004000025
:043E8800A902000883
:043E8C007D020008AB
:103E90001A03000000000000000000000000000005
:103EA00000000000000000000000000004030904FE
:103EB000050F3900021810050038B60834A909A00A
:103EC000478BFDA0768815B665000101011C100521
:103ED00000DF60DDD88945C74C9CD2659D9E648A11
:103EE0009F000003062C01020000000012011002D6
:103EF00000000040830417A4000201020301000037
:103F0000CD070008E50700085D08000879080008EB
:103F10001508000895080008B1080008D90700082E
:103F2000123E0008B9090008AD090008350900086B
:103F3000EF080008CD080008E308000801000000B1
:103F4000040000000024F4000A0000000000030642
:103F50002C014C00040004003E0045006E00680087
:103F600061006E0063006500640050006F00770020
:103F7000650072004D0061006E0061006700650021
:103F80006D0065006E00740045006E006100620007
:103F90006C006500640000000400000000003E00AA
:103FA000040004003000530065006C0065006300ED
:103FB000740069007600650053007500730070009E
:103FC00065006E00640045006E00610062006C00D8
:103FD00065006400000004000000000014000300FD
:103FE00057494E55534200000000000000000000F9
:103FF0008400040007002A00440065007600690080
:104000006300650049006E00740065007200660080
:1040100061006300650047005500490044007300DB
:10402000000050007B0030003700420034003600B2
:104030003800360038002D004600300037004600BA
:104040002D0034003600460042002D0041003800AB
:10405000460034002D00350041003400310041009D
:1040600045003900430036003000320035007D0045
:10407000000000002003016669726D776172652E91
:10408000706C617973757065726C61746976652E98
:10409000636F6D2F0A06000200000040010000005F
:1040A00009021B00010102C0320904000000FE01E8
:1040B000020609210BFF0000041A0100613C000800
:1040C000193C0008A1380008B93700080D3700086E
:1040D0000000000000000000C93C000800000000D3
:1040E0000000000001370008013700080137000810
:0840F000113700081D3700081C
:0400000508003CE1D2
:00000001FF
